:020000040800F2
:10000000780C0124B90300087B4F00082F4E00082C
:10001000794F0008030F000819770008000000005E
:10002000000000000000000000000000F5030008D0
:10003000CF130008000000006104000871040008EC
:10004000D3030008D3030008D3030008D303000838
:10005000D3030008D3030008D3030008D303000828
:10006000D3030008D3030008D30300082F0F0008B0
:10007000D30300083B0F0008D3030008D303000894
:10008000D3030008D3030008D3030008D3030008F8
:10009000D3030008D3030008D3030008D3030008E8
:1000A000D3030008D3030008D3030008D3030008D8
:1000B000D3030008D3030008D3030008D3030008C8
:1000C000D3030008D3030008D3030008D3030008B8
:1000D000D30300080D770008D3030008D3030008FA
:1000E000D3030008D303000800000000D303000876
:1000F000D3030008D3030008D3030008D303000888
:10010000D3030008D3030008D3030008D303000877
:10011000D3030008D3030008D3030008D303000867
:10012000D3030008D3030008D3030008D303000857
:10013000D3030008D3030008D3030008D303000847
:1001400000000000000000000000000000000000AF
:10015000D3030008D3030008D3030008D303000827
:10016000D3030008D3030008D3030008D303000817
:10017000D3030008D3030008D303000800000000E5
:10018000D3030008D3030008D3030008D3030008F7
:10019000D3030008D3030008D3030008D3030008E7
:1001A000D3030008D3030008D3030008D3030008D7
:1001B0007B670008D3030008D3030008D3030008BB
:1001C000D3030008D3030008D3030008D3030008B7
:1001D000D3030008D3030008D3030008D3030008A7
:1001E000D3030008D3030008D3030008D303000897
:1001F000D3030008D3030008D3030008D303000887
:10020000D3030008D3030008D3030008D303000876
:10021000D3030008D3030008D3030008D303000866
:10022000D3030008D3030008D30300080000000034
:10023000D3030008D303000800000000D303000824
:10024000D3030008D3030008D3030008D303000836
:10025000D3030008D3030008D3030008D303000826
:10026000D3030008D3030008D3030008D303000816
:10027000D3030008D3030008D303000800000000E4
:10028000D3030008D3030008D303000800000000D4
:1002900000000000D303000800F002F800F05FF84F
:1002A0000AA090E8000C82448344AAF10107DA45D1
:1002B00001D100F054F8AFF2090EBAE80F0013F0C4
:1002C000010F18BFFB1A43F00103184758700100D3
:1002D000987001000A4410F8014B14F00F0508BF94
:1002E00010F8015B240908BF10F8014B6D1E05D002
:1002F00010F8013B6D1E01F8013BF9D1641E03D0DB
:10030000641E01F8015BFBD19142E4D37047000009
:100310000023002400250026103A28BF78C1FBD80E
:10032000520728BF30C148BF0B607047642900F0F6
:100330009B81732900F04585002070471FB513F09D
:10034000FFF900F034FA00F093FD040000200021D2
:1003500013F0E0F9401C60601FBD10B510BD00F047
:100360009AFD114603B407F0EDFC03BCFFF7E6FF6E
:100370000CF0C0FA00F0B4FD03B4FFF7EEFF03BCCD
:1003800000F0B8FD0B49D1F800C04A685CF8043BA6
:100390001068184442F8040B8C4528BFA1F1DC0C0E
:1003A0008A4228BFA1F1DC02C1F800C04A6020F0F7
:1003B000004070478C0200240948804709480047E4
:1003C000FEE7FEE7FEE7FEE7FEE7FEE7FEE7FEE705
:1003D000FEE7FEE704480549034A054B7047000065
:1003E000E36900089902000878CC0024780C012405
:1003F00078CC00241EF0040F0CBFEFF30880EFF35D
:100400000980816911F8021C00291BD101B590E80F
:100410000F10E047BDE800508CE80300184B93E84C
:100420000600914208BF70471A6019B12CE9F00F1D
:10043000C1F838C0906B6FF0020EB0E8F00F80F397
:10044000098870470F4A13689942FAD801B552F8E3
:1004500021C00FC8E047BDE80050CCF8000070474D
:1004600001B50DF089F9BDE80140EFF3098CD5E73E
:1004700001B50DF073FCBDE80140EFF3098CCDE749
:100480001C010024C840010853EA020C00F06980F6
:100490002DE9F04B4FF00006002B1FBFB3FA83F598
:1004A00003FA05F424FA05F65E4012BF1643B2FAC9
:1004B00082F502FA05F4C5F120051EBF22FA05FCFB
:1004C00044EA0C04203556EA044C4FEA144418BFA1
:1004D000641C4FF000084FF00009904271EB030CD0
:1004E00039D3002919BFB1FA81F701FA07F6B0FA3A
:1004F00080F700FA07F6C7F120071EBF20FA07FCB5
:1005000046EA0C062037B6FBF4FCA7EB0507103FC4
:1005100007F01F0BCBF120062CFA06F60CFA0BFBAA
:1005200044BFB3460026202FA4BF5E464FF0000B09
:100530005BEA060C08BF4FF0010B19EB0B0948EB07
:100540000608ABFB027C06FB02CC0BFB03CCC01BFA
:1005500071EB0C01C1E70B46024641464846BDE837
:10056000F08B13B5084318BF4FF0FF300146AFF3CF
:100570000080BDE81C4070470FB41CB50C0007AAF2
:10058000009001D02044401E074B7B4469460190F7
:10059000069800F0E4FB002C03D06946002000F030
:1005A000F1FB1CBC5DF814FB010800002DE9F041D3
:1005B0000E460446002020622046E168884730B39A
:1005C000252805D0D4E901219047206A401CF2E794
:1005D000E168204600278847050018D0A5F14100B2
:1005E000192802D820354FF40067324629462046A4
:1005F0002760FFF79BFE40B1012804D0F61D26F0CE
:1006000007060836D8E7361DD6E72846DAE7206A17
:10061000BDE8F08170B50C460546012A05D0287862
:10062000800600D5EA69002302E0012305E05B1C97
:10063000934202D2E05C0028F9D1A869E618C01AFA
:10064000A861286A184428622846AFF3008004E0B5
:10065000D5E9012114F8010B9047B442F8D328469C
:10066000AFF3008070BD00002DE9F0410646002484
:1006700010687529314616A510D0AFF30080002808
:1006800002DA404213A507E031688A0701D512A5B6
:1006900002E0490704D511A5012401E0AFF3008071
:1006A00000210A2206F1240709E0B0FBF2FCB0FBAE
:1006B000F2F302FB1C00303078541846491C002825
:1006C000F3D123462A463046BDE8F04100F0E8BAAF
:1006D000000000002D0000002B00000020000000A2
:1006E00070B5064600F0DAFA0468054630460A227C
:1006F000002100F00FF82C6070BD70B5064600F0C8
:10070000CDFA0468054630460A22002100F002F8BE
:100710002C6070BD2DE9F04791460F468046044697
:10072000002614F8015B2DB100F0B0FA0068405DBE
:10073000C007F6D12B2D02D02D2D18D0641E4A46AD
:100740003946204600F041FB27B13968A14201D16A
:10075000C7F800804FF0020471050BD54042002815
:1007600003DD00F09BFA0460A007BDE8F08746F4C3
:100770008066E4E70028F8DA00F090FA04606FF091
:100780000040F2E70B4910B5A1F17C020A4CC2E926
:100790003712372106E000EB104342F82130074BB7
:1007A00000FB03400B1EA1F10101F4DC10BD012090
:1007B000E8E700002C020024E119D666CD0D010007
:1007C00030B505460B462A4613F8014B12F8010BCB
:1007D00008B1A042F8D01CB1002802D06D1CF1E78E
:1007E000284630BD40EA010310B59B070FD1042A0B
:1007F0000DD310C808C9121F9C42F8D020BA19BAEC
:10080000884201D9012010BD4FF0FF3010BD1AB150
:10081000D30703D0521C07E0002010BD10F8013BA5
:1008200011F8014B1B1B07D110F8013B11F8014BCC
:100830001B1B01D1921EF1D1184610BD10B5431CEF
:1008400002E010F8011B71B18107FAD14FF00132BB
:1008500002C88C1A8C4314EAC211F9D0C01A0A06D5
:1008600003D0C01E10BDC01A10BD0A0401D0801EE6
:1008700010BD0902FCD0401E10BD40EA010370B556
:100880009B072ED14FF00136042A2AD308C810C97D
:100890009D1B9D43121F15EAC61517D0D8B2E1B2B1
:1008A000401A50EA056110D198B2A1B2401A50EA3C
:1008B00005410AD123F07F4024F07F41401A50EADD
:1008C000052102D1180EA0EB146070BDA342DBD04D
:1008D00018BA21BA884201D9012070BD4FF0FF300B
:1008E00070BD0AB9002070BD10F8013B11F8014B32
:1008F00063B1A3420AD1521E08D010F8013B11F88F
:10090000014B1BB1A34201D1521EEDD1181B70BD8A
:10091000032A40F2308010F0030C00F0158011F82B
:10092000013BBCF1020F624498BF11F801CB00F803
:10093000013B38BF11F8013BA2F1040298BF00F857
:1009400001CB38BF00F8013B11F0030300F06780D2
:10095000083AC0F0088051F8043B083A51F804CB3B
:10096000A0E80810F5E7121D5CBF51F8043B40F801
:10097000043BAFF30080D20724BF11F8013B11F80C
:1009800001CB48BF11F8012B24BF00F8013B00F850
:1009900001CB48BF00F8012B7047431A28BF9A4289
:1009A0007FF6B6AF10441144032A40F2268010F0BF
:1009B000030F1EBF11F8013D521E00F8013D10F05B
:1009C000030F7FF4F6AF11F0030300F06D80083AD7
:1009D000C0F00B8051F8043D083A51F804CD40F8BE
:1009E000043D40F804CDFFF7F3BF121D5CBF51F882
:1009F000043D40F8043DAFF30080D20724BF11F856
:100A0000013D11F801CD48BF11F8012C24BF00F8B9
:100A1000013D00F801CD48BF00F8012C704710B52A
:100A2000203AC0F00B80B1E81850A0E81850B1E8A7
:100A30001850A0E81850203ABFF4F5AF5FEA027CE6
:100A400024BFB1E81850A0E8185044BF18C918C016
:100A5000BDE810405FEA827C24BF51F8043B40F8B7
:100A6000043B08BF7047D20728BF31F8023B48BF9C
:100A700011F8012B28BF20F8023B48BF00F8012BDA
:100A80007047431A28BF9A427FF6C9AF10441144F9
:100A900010F0030F1EBF11F8013D521E00F8013D7A
:100AA00010F0030F7FF4F6AF103AC0F00A8010B5D3
:100AB00031E9185020E91850103ABFF4F9AFBDE8F9
:100AC0001040530724BF31E9081020E9081044BF43
:100AD00051F8043D40F8043D12F0030F08BF704781
:100AE000D20728BF31F8023D48BF11F8012C28BFBA
:100AF00020F8023D48BF00F8012C704702F0FF03C8
:100B000043EA032242EA024200F00AB802F0FF037D
:100B100043EA032242EA024200F024B84FF0000206
:100B20000429C0F0128010F0030C00F01B80CCF1FF
:100B3000040CBCF1020F18BF00F8012BA8BF20F86D
:100B4000022BA1EB0C0100F00DB85FEAC17C24BFC1
:100B500000F8012B00F8012B48BF00F8012B70476B
:100B60004FF0000200B5134694469646203922BF46
:100B7000A0E80C50A0E80C50B1F12001BFF4F7AF91
:100B8000090728BFA0E80C5048BF0CC05DF804EB73
:100B9000890028BF40F8042B08BF704748BF20F8E1
:100BA000022B11F0804F18BF00F8012B704710B5D1
:100BB000044610F0030F08BF11F0030F40F015803A
:100BC0004FF0013E121FC0F20E8051F8043BA3EB20
:100BD0000E0C2CEA030C1CEACE1C08BF40F8043BA8
:100BE000F0D0A1F1040102F10402521E08DB11F859
:100BF000013B00F8013B002BF7D11146FFF78EFFB8
:100C0000204610BD0000000030B44FF0013C50F809
:100C1000042BCCFA52F451F8043BD51A20D1FCB97C
:100C200050F8042BCCFA52F451F8043BD51A17D1E2
:100C3000B4B950F8042BCCFA52F451F8043BD51A4D
:100C40000ED16CB950F8042BCCFA52F451F8043B95
:100C5000D51A05D1002CDAD030BC4FF00000704717
:100C600029BAB1FA81F111F01801D1F120008440C4
:100C7000F2D1CA40CB4012F0FF0213F0FF0330BCA8
:100C8000D01A7047704770477047000010B500F0E9
:100C9000EFF8001D10BD00BF7D2A010006F04FBD1A
:100CA0002DE9F0470D4699469246044600F1240886
:100CB0000168880604D5E06921F01001216000E098
:100CC0000120A84201DD471B00E00027A1697A1935
:100CD00002EB0900081AA0612078C00602D4204661
:100CE000AFF30080002608E0D4E901211AF80600DD
:100CF0009047206A401C761C20624E45F4DB207829
:100D0000C0060AD52046AFF3008006E0D4E90121F1
:100D100030209047206A401C2062381EA7F101074E
:100D2000F4DC07E0D4E9012118F805009047206AB7
:100D3000401C2062281EA5F10105F3DC2046AFF31C
:100D400000802078000602D50220BDE8F08701204F
:100D5000FBE7000001694A1C02610878704700B592
:100D60008FB0CDE901310021059105497944CDE9E4
:100D7000031011466846FFF719FC0FB000BD0000D4
:100D8000E5FFFFFF0A6802F8010B0A607047D1E92E
:100D900000239A4202D2531C0B601070704710B5AA
:100DA000436913B1AFF3008001E0FFF733FC01208A
:100DB00010BD127800F124010A7000224A7001224D
:100DC000EDE711684FF0FF32E9E72DE9F05F824669
:100DD00015468B4600270AF10104B94600783028F1
:100DE00001D09DB113E014F8010B0127782803D03E
:100DF000582801D045B10AE00DB1102D07D10027C8
:100E000014F8010B102502E0082500E00A25002651
:100E1000B0460EE005FB080005FB06F101271FFAAE
:100E200080F801EB1046B6F5803F00D3B94614F8C0
:100E3000010B294600F021F80028EBDABBF1000F86
:100E400005D00FB1641E00E05446CBF80040B9F164
:100E5000000F06D0FFF722FF02210160C81EBDE887
:100E6000F09F48EA0640FAE70048704794020024E1
:100E700010B5FFF7F9FF203010BD3A2800D2303806
:100E800020F02002412A01D3A2F13700884201D389
:100E90004FF0FF3070477546FFF7E6FFAE4605009E
:100EA0006946534620F00700854618B020B5FFF785
:100EB00091FABDE820404FF000064FF000074FF0D8
:100EC00000084FF0000BAC46ACE8C009ACE8C00924
:100ED000ACE8C009ACE8C00921F007018D467047B5
:100EE00010B50446AFF300802046BDE81040FFF780
:100EF00043BA000001491820ABBEFEE726000200FD
:100F00007047FEE7B0B543F690130022C0F6010328
:100F100001290ADB94B210F8015B013985EA142437
:100F200033F8144084EA0222F2E790B2B0BD44F2F2
:100F30000400C2F2004000F079BD44F27C00C2F22D
:100F4000004000F073BD10B51022016805F03FF8B5
:100F50002FD0282205F03BF81EBF4022C4F2020227
:100F6000914226D0582205F032F81EBF7022C4F2FA
:100F7000020291421DD0882205F029F81EBFA0224E
:100F8000C4F20202914214D0B82205F020F81EBF2C
:100F900040F21042C4F2020291420AD040F22842CA
:100FA00005F015F81EBF40F24042C4F20202914221
:100FB00017D16FF00F02182343F6A07452FA81F292
:100FC000C0F60104B2FBF3F303F00703E35CC3656F
:100FD00040F2FF3399435F2A88BF04318165084698
:100FE00010BD40F2584204F0F2FFE2D040F27042ED
:100FF00004F0EDFFDDD040F2884204F0E8FFD8D0E5
:1010000040F2B84204F0E3FFD3D040F2A04204F033
:10101000DEFFCED021F0FF01E0E710B545F2084237
:10102000016804F015FE0AD045F21C4204F010FEDF
:101030001EBF45F23042C5F60202914217D16FF051
:10104000070245F6000352FA81F11422C5F60203A5
:10105000B1FBF2F203F1800103EB820302F01F0205
:101060000124C0E9183104FA02F2826610BD45F28B
:10107000444204F0EDFDE2D045F2584204F0E8FDB0
:10108000DDD045F26C4204F0E3FDD8D045F2944245
:1010900004F0DEFDD3D045F2804204F0D9FDCED07D
:1010A0006FF00F0240F20F44182352FA81F2C4F29B
:1010B0000204B2FBF3F3A1421A4688BF0832AA34F5
:1010C000A14228BF1A4640F60003C4F20203C1E75A
:1010D00070B501794A1E072A1FD845F6FC0345F270
:1010E00008460568C5F60203C5F6020603F1440486
:1010F000B5420AD045F21C4605F0B4F81EBF45F2D1
:101100003046C5F60206B54208D1012503EB810140
:10111000C0E91B1405FA02F2426770BD45F244466D
:1011200005F0A0F8F1D045F2584605F09BF8ECD058
:1011300045F26C4605F096F8E7D045F2804605F09A
:1011400091F8E2D045F2944605F08CF8DDD040F6F7
:10115000FC03C4F2020303F14404D6E72DE9FF4F78
:10116000CDE901311025816D2823402640F2880900
:1011700040F2A00B40F2B80C40F2104A40F228476F
:1011800040F2404840F2584E0392582200910468C1
:101190007021C4F20205C4F20203C4F20206C4F2D2
:1011A0000202C4F20209C4F2020BC4F2020CC4F23D
:1011B000020AC4F20207C4F20208C4F2020EAC42F0
:1011C000C4F2020140D09C4218BFB4423CD09442C9
:1011D00018BF8C4238D04C4518BF5C4534D06445AC
:1011E00018BF544530D0BC4218BF44452CD074457C
:1011F0001EBF40F27041C4F202018C4224D040F282
:101200008841C4F202018C421EBF40F2A041C4F2E8
:1012100002018C4218D040F2B841C4F202018C4263
:101220001EBF45F20841C5F602018C420CD045F2C2
:101230001C41C5F602018C421EBF45F23041C5F685
:1012400002018C4240F08380C16ED0E91962BE4633
:10125000726011B1D0E91C124A6040F28809702313
:1012600040262827AC4240F25805C4F20209C4F2D5
:101270000203C4F20205C4F20206C4F202072BD034
:10128000BC4218BFB44227D0AC4218BF9C4223D006
:101290004C4518BF5C451FD0644518BF54451BD052
:1012A000744518BF444517D040F25841C4F20201BA
:1012B0008C421EBF40F27041C4F202018C420BD03E
:1012C00040F28841C4F202018C421EBF40F2A041AC
:1012D000C4F202018C421AD18168C06D3F2200F035
:1012E0001F0002FA00F0009A9060206820F480202D
:1012F000206040290198606003D10398A0600298A3
:1013000002E00298A0600398E060BDE8FF8F45F21C
:10131000944105F023F81EBF45F20841C5F60201CD
:101320008C420AD045F21C4105F018F81EBF45F268
:101330003041C5F602018C422DD18168C06D012279
:1013400000F01F0002FA00F0009A5060D1E745F269
:101350004441C5F602018C423FF476AF45F2584154
:10136000C5F602018C423FF46FAF45F26C41C5F601
:1013700002018C423FF468AF45F29441C5F6020188
:101380008C423FF461AF45F28041C5F602018C42C8
:101390003FF45AAFB9E745F2444104F0DFFFCCD047
:1013A00045F2584104F0DAFFC7D045F26C4104F031
:1013B000D5FFC2D045F2804104F0D0FFBDD040F24D
:1013C000B841C4F202018C423FF486AF9DE77047FA
:1013D000EFF3108072B6FEE77047704770477047B2
:1013E0007047704770477047704770477047704745
:1013F0007047704770477047704770477047704735
:101400007047704770477047704770477047704724
:101410007047704770477047704770477047704714
:101420007047704770477047704770477047704704
:1014300070477047704770477047704770477047F4
:1014400070477047704770477047704770477047E4
:101450002DE9F84F044601F0CDFA002C00F0C080D1
:10146000054694F83500022840F0B580102340F27C
:10147000280B40F2400A582640F270082768C4F250
:101480000203C4F2020BC4F2020AC4F20206C4F25E
:1014900002089F4226D05F4518BF574522D0B74269
:1014A00018BF47451ED0882004F089FA1EBFA0202F
:1014B000C4F20200874215D0B82004F080FA1EBFA3
:1014C00040F21040C4F2020087420BD040F22840A4
:1014D00004F075FA1EBF40F24040C4F20200874299
:1014E00040F01A81386820F01E01384640F8141B7D
:1014F0006FF08001026845F208491140C5F6020903
:1015000001609F424ED05F4518BF57454AD0B74251
:1015100018BF474546D0882004F051FA1EBFA020CE
:10152000C4F2020087423DD0B82004F048FA1EBF42
:1015300040F21040C4F20200874233D040F228400B
:1015400004F03DFA1EBF40F24040C4F20200874260
:1015500028D040F2584004F032FA1EBF40F27040EA
:10156000C4F2020087421DD040F2884004F027FAFE
:101570001EBF40F2A040C4F20200874212D040F2E7
:10158000B84004F01CFA18BF4F450BD045F21C4080
:1015900003F0FEFF1EBF45F23040C5F60200874251
:1015A00040F00381206E016821F480710160386889
:1015B00020F0010038603868C00714D001F01AFA32
:1015C000401B0628F7D32020606504F03CF8032078
:1015D00084F8350004E0002084F834008020606541
:1015E0000120BDE8F88F1021206803F07CFD26D093
:1015F000584518BF504522D0B04218BF40451ED0B4
:10160000882103F070FD1EBFA021C4F202018842B0
:1016100015D0B82103F067FD1EBF40F21041C4F29F
:10162000020188420BD040F2284103F05CFD1EBF4E
:1016300040F24041C4F20201884240F08F80D4E978
:1016400016123F2302F01F0203FA02F28A601021F1
:1016500003F049FD4DD0584518BF504549D0B04220
:1016600018BF404545D0882103F03DFD1EBFA02195
:10167000C4F2020188423CD0B82103F034FD1EBF01
:1016800040F21041C4F20201884232D040F22841B7
:1016900003F029FD1EBF40F24041C4F2020188421E
:1016A00027D040F2584103F01EFD1EBF40F27041AA
:1016B000C4F2020188421CD040F2884103F013FDBD
:1016C0001EBF40F2A041C4F20201884211D040F294
:1016D000B84103F008FD18BF48450AD045F21C4147
:1016E00003F004FE1EBF45F23041C5F602018842F8
:1016F0007AD1E06ED4E919124A6030B1016821F460
:1017000080710160D4E91C014160012084F835003A
:1017100003F099FFBDE8F88F40F2584004F04FF90C
:101720003FF4E0AE40F2704004F049F93FF4DAAE25
:1017300040F2884004F043F93FF4D4AE40F2B840A0
:1017400004F03DF93FF4CEAE40F2A04004F037F98A
:101750003FF4C8AE6FF00E013846CBE640F2584178
:1017600003F0C1FC3FF46BAF40F2704103F0BBFCEF
:101770003FF465AF40F2884103F0B5FC3FF45FAF42
:1017800040F2B84103F0AFFC3FF459AF40F2A04142
:1017900003F0A9FC3FF453AFD4E91612012302F081
:1017A0001F0203FA02F24A6051E745F2444003F097
:1017B000EFFE3FF4F7AE45F2584003F0E9FE3FF488
:1017C000F1AE45F26C4003F0E3FE3FF4EBAE45F2C0
:1017D000944003F0DDFE3FF4E5AE45F2804003F0B7
:1017E000D7FE3FF4DFAEE2E645F2444103F07EFD72
:1017F0003FF47FAF45F2584103F078FD3FF479AFF5
:1018000045F26C4103F072FD3FF473AF45F2944131
:1018100003F06CFD3FF46DAF45F2804103F066FDCF
:101820003FF467AF71E72DE9F84F002800F0A3807F
:1018300090F83510022940F09C8040F2100940F2E7
:10184000280840F2A00C40F2104B40F2284A40F227
:10185000404740F2584640F2704540F2884440F21A
:10186000B84340F2A04E0168C4F20209C4F2020873
:10187000C4F2020CC4F2020BC4F2020AC4F2020760
:10188000C4F20206C4F20205C4F20204C4F2020366
:10189000C4F2020E49452FD041451EBF4022C4F27A
:1018A0000202914228D05822C4F2020291421EBF85
:1018B0007022C4F2020291421ED08822C4F20202B7
:1018C000914218BF614517D07246E64640F2B80C07
:1018D000C4F2020C6145F446964618BF59450BD038
:1018E000514518BFB94207D0B14218BFA94203D031
:1018F000A14218BF994242D14FF0040A80F835A0A6
:10190000494518BF41452ED04020C4F20200814213
:101910001EBF5820C4F20200814224D07020C4F2BD
:10192000020081421EBF8820C4F2020081421AD008
:1019300061451EBFB820C4F20200814213D0594550
:101940001EBF40F22840C4F2020081420BD0B942CF
:1019500018BFB14207D0A94218BFA14203D0994293
:101960001A4618BF7145086820F001000860002180
:1019700002E08021416501210846BDE8F88F7145EC
:10198000BAD00A6822F00E020A600A6822F0010248
:101990000A6045F2084204F05BF90AD045F21C42A5
:1019A00004F056F91EBF45F23042C5F602029142DC
:1019B00022D100F158041ECC1D6825F480751D60ED
:1019C00002F01F02012303FA02F24A60816E616095
:1019D000C16E31B10A6822F480720A60D0E91C122B
:1019E0004A60012180F835100021026D80F8341022
:1019F000002AC1D09047BAE745F2444204F028F9E2
:101A0000D7D045F2584204F023F9D2D045F26C42C7
:101A100004F01EF9CDD045F2944204F019F9C8D073
:101A200045F2804204F014F9C3D0DAE72DE9FE4F05
:101A3000044600200290102240F2280840F2400B99
:101A400040F258097027A02340F2B80E40F25845E2
:101A500040F2704C40F20800C4F20202C4F20208E4
:101A6000C4F2020BC4F20209C4F20207C4F2020378
:101A7000C4F2020EC4F20205C4F2020CC2F200402B
:101A8000D4F858A0006801902068DAF80060DAF80D
:101A9000001090423ED0404518BF58453AD04845C6
:101AA00018BFB84236D06246AC464546D846CB460B
:101AB00040F28809C4F202094845D946C346A846FF
:101AC0006546944618BF984224D070451EBF40F228
:101AD0001042C4F2020290421CD040F22842C4F2EA
:101AE000020290421EBF40F24042C4F20202904203
:101AF00010D0A84218BF60450CD040F28842C4F212
:101B0000020290421EBF40F2A042C4F20202904282
:101B100040F01382E16D082240F2884E01F01F016F
:101B2000C4F2020E8A40324246D0AC46102504234D
:101B3000C4F20205A84218BF404529D0584518BF35
:101B4000484525D0B8421EBF8825C4F20205A842E8
:101B50001ED0A025C4F20205A8421EBFB825C4F2BB
:101B60000205A84214D040F21045C4F20205A84272
:101B70001EBF40F22845C4F20205A84208D040F238
:101B80004045C4F20205A84218BF604540F0BB8141
:101B900005681D4240F270456346C4F20205AC463A
:101BA0001D4609D0036823F004030360CAF8082027
:101BB000626D42F00102626501228A4032423DD0EC
:101BC0001023C4F20203984218BF40452DD0584557
:101BD00018BF484529D0B8421EBF8823C4F202036B
:101BE000984222D0A023C4F2020398421EBFB82319
:101BF000C4F20203984218D040F21043C4F2020328
:101C000098421EBF40F22843C4F2020398420CD00F
:101C100040F24043C4F20203984218BFA84204D0E5
:101C2000604518BF704540F0C38143691B0605D568
:101C3000CAF80820626D42F00202626504228A40FE
:101C400032423DD01023C4F20203984218BF4045EF
:101C50002DD0584518BF484529D0B8421EBF88230B
:101C6000C4F20203984222D0A023C4F20203984295
:101C70001EBFB823C4F20203984218D040F21043AA
:101C8000C4F2020398421EBF40F22843C4F202038A
:101C900098420CD040F24043C4F20203984218BF6D
:101CA000A84204D0604518BF704540F09181036898
:101CB0009B0705D5CAF80820626D42F004026265F0
:101CC000102202FA01F1314272D010230822C4F22C
:101CD0000203984218BF404539D0584518BF4845BF
:101CE00035D0B8421EBF8823C4F2020398422ED0DA
:101CF000A023C4F2020398421EBFB823C4F2020319
:101D0000984224D040F21043C4F2020398421EBF0E
:101D100040F22843C4F20203984218D040F24043F4
:101D2000C4F20203984218BFA84210D0604518BF01
:101D300070450CD040F2A043C4F20203984206D092
:101D400040F2B843C4F20203984218BF0422036869
:101D500013422DD0CAF8081002680168520316D445
:101D6000C90503D4016821F008010160216CF9B1B3
:101D70002046F346E0468847C44640F22808DE463F
:101D800040F2400BC4F20208C4F2020B10E0080358
:101D900054BF216CA16C59B12046E046884740F2FF
:101DA000884EC44640F22808C4F20208C4F2020E6B
:101DB000E06D00F01F01202000FA01F2324278D0DD
:101DC000102620681023C4F20206B04218BF404516
:101DD0003AD0584518BF484536D0B8421EBF88276C
:101DE000C4F20207B8422FD0A027C4F20207B842BB
:101DF0001EBFB827C4F20207B84225D040F21047F0
:101E0000C4F20207B8421EBF40F22846C4F20206DE
:101E1000B04219D02E4640F24045C4F20205A84215
:101E200018BFB04210D0604518BF70450CD040F2CA
:101E3000A045C4F20205A84206D040F2B845C4F25B
:101E40000205A84218BF022305681D4231D0CAF816
:101E5000082094F835300268042B16D122F01602BF
:101E60000260426922F080024261226C0AB9A26CCF
:101E70001AB1026822F0080202603F208840CAF8C6
:101E8000080004F06BF9216D38E00168520308D4B2
:101E9000C9050AD4016821F01001016004F05EF95F
:101EA00003E0080301D4616C00E0E16B09B1204656
:101EB0008847606D28B3606DC0071ED04FF4165080
:101EC0000199B1FBF0F1042084F835002068026824
:101ED00022F001020260029A013202928A4202D882
:101EE0000268D207F7D104F0ADFA0068C0074FF0DE
:101EF000030008BF012084F83500E16C09B12046D9
:101F00008847BDE8FE8F40F27045C4F20205A84242
:101F10003FF43EAE704575463FF43AAE40F2A04500
:101F2000C4F20205A8423FF433AE40F2B845C4F211
:101F30000205A84218BF08232AE645F29442C5F6D6
:101F4000020290421EBF45F20842C5F602029042CC
:101F50000BD045F21C42C5F6020290421EBF45F26C
:101F60003042C5F6020290425AD1E26D02F01F03E0
:101F7000042202FA03F502680D4201D0570737D454
:101F800002259D400D4201D097073CD4D940090756
:101F9000B7D51107B5D5016821F00E010160012008
:101FA00000FA03F1CAF80410606504F04BFAA2E7E6
:101FB00040F2A043C4F2020398423FF436AE40F22E
:101FC000B843C4F2020398423FF42FAE026835E6EC
:101FD00040F2A043C4F2020398423FF468AE40F2DC
:101FE000B843C4F2020398423FF461AE026867E668
:101FF0001104CAF8045034D4910636D4016821F093
:102000000401016031E01104CAF804502FD4910694
:1020100031D4016821F00A01016004F09FF82AE040
:1020200045F24442C5F6020290429ED045F2584223
:10203000C5F60202904298D045F26C42C5F6020203
:10204000904292D045F28042C5F6020290423FF49F
:102050008CAF40F2B841C4F2020188423FF45AAD5D
:102060004FE7D00301D4A16C48E7216C46E7D003C9
:1020700001D4616C42E7E16B40E700002DE9F84FC5
:10208000044600F0B7FC002C00F0B880102140F2AC
:10209000284740F2404640F2584340F2704240F236
:1020A000884E40F2A04B45F2084A45F21C4C45F2DE
:1020B000944905462068C4F20201C4F20207C4F242
:1020C0000206C4F20203C4F20202C4F2020EC4F217
:1020D000020BC5F6020AC5F6020CC5F602098842D3
:1020E00035D02821C4F2020188421EBF4021C4F22B
:1020F000020188422BD05821C4F2020188421EBF3F
:102100007021C4F20201884221D08821C4F2020168
:1021100088421EBFA021C4F20201884217D0B82114
:10212000C4F2020188421EBF40F21048C4F2020805
:1021300040450CD0B84218BFB04208D0984218BFF2
:10214000904204D0704518BF584540F038810221B4
:1021500084F8351004F076F9016821F0010101607E
:102160000168C90706D000F045FC401B052840D88F
:102170002068F5E748F23F0204F10807016804F11E
:102180001C0ECFF610621140E0CFD4E9052C9EE87A
:102190000842294331433943114341EA0C011943B1
:1021A00041EA0901BEF1040F03D1D4E90B23114325
:1021B000194341F20002C5F600421268B2F1005F15
:1021C0001FD3656845F29449A5F12902C5F60209B5
:1021D000062A0BD3A5F13F02042A07D3A5F1470233
:1021E000022A03D3A5F14F02032A0ED841F480112D
:1021F0000BE020206065032084F835000120BDE855
:10220000F88F45F29449C5F60209016045F21C4772
:10221000BEF1040F4169C5F6020721F0070141EA4A
:102220000E0132D1D4E90A53294373B3BCF5005FE0
:1022300008D0BCF1000F1BD1022D1CD0012D11D0F4
:10224000CDB122E0032D20D80FF2080202EB850267
:10225000974600BF00F012B800F00DB800F00EB8BD
:1022600000F000B8A3F1C072B2FA82F2520904E0A1
:10227000032D03D309D1C3F3006232B1402060655E
:10228000012084F83500BDE8F88F41612046B8464A
:10229000FEF759FE03F00DF91021206840F270425C
:1022A00040F2584340F2404540F22846C4F2020151
:1022B000C4F20202C4F20203C4F20205C4F202062E
:1022C000884240F28841C4F2020155D02827C4F266
:1022D0000207B8421EBF4027C4F20207B8424BD0E3
:1022E0005827C4F20207B8421EBF7027C4F2020783
:1022F000B84241D08827C4F20207B8421EBFA027C7
:10230000C4F20207B84237D0B827C4F20207B84275
:102310001EBF40F21047C4F20207B8422CD0B042B0
:1023200018BFA84228D0984218BF904224D08842B3
:1023300018BF584520D040F2B84102F0D4FE18BF73
:10234000504519D040451EBF45F23041C5F6020147
:10235000884211D045F2444102F0C8FF0CD045F24A
:10236000584102F0C3FF07D045F26C4102F0BEFFB6
:1023700018BF484540F086802046FEF74EFEA06814
:1023800004F16003802806BF002060606068C5B269
:102390000ECB013807280D60536005D82046FEF7A4
:1023A00097FE03F016FA03E00020C4E91B00606703
:1023B00000206065012184F83510BDE8F88F48459C
:1023C00018BF504507D060451EBF45F23041C5F6E5
:1023D0000201884236D1022184F83510142204F11A
:1023E0000805E04604F02EF84AF6F831CAF2FD710D
:1023F0000144B1FBF2F18900E1652ECD06686FF36F
:10240000101646EAD202A1F18006B6FA86F67609DF
:10241000B603402908BF102642EA0601A26941EA34
:10242000D30141EAD50141EAD201E26941EAD20190
:10243000226A41EA121101602046FEF784FD02F093
:10244000DCFF29E745F24441C5F602018842C2D0CB
:1024500045F25841C5F602018842BCD045F26C41B4
:10246000C5F602018842B6D045F28041C5F60201A8
:102470008842B0D040F2B84102F035FE3FF467AE7A
:102480004020B7E645F2804102F030FF3FF474AFE0
:102490008EE72DE9F84F002800F0018103F018FACB
:1024A00002D10220BDE8F88F03F035F940F0F28048
:1024B00003F0C9FC40F2100940F2A00840F2B80C49
:1024C00040F2104B40F2284A40F2404740F2584652
:1024D00040F2704540F288432068C4F20209C4F219
:1024E0000208C4F2020CC4F2020BC4F2020AC4F2E3
:1024F0000207C4F20206C4F20205C4F20203484510
:102500001EBF2821C4F20201884224D04021C4F217
:10251000020188421EBF5821C4F2020188421AD02B
:102520007021C4F2020188421EBF8821C4F2020158
:10253000884210D0404518BF60450CD0584518BFA0
:10254000504508D0B84218BFB04204D0A84218BFC6
:10255000984240F0B18001680B2262F344010160AF
:10256000216C19B1016841F008010160484546D06D
:102570002821C4F2020188421EBF4021C4F2020198
:1025800088423CD05821C4F2020188421EBF70210B
:10259000C4F20201884232D08821C4F2020188428A
:1025A00018BF40452BD0604518BF584527D050452F
:1025B00018BFB84223D0B04218BFA8421FD09842DB
:1025C0001EBF40F2A041C4F20201884217D040F27F
:1025D000B841C4F2020188421EBF45F20841C5F667
:1025E000020188420BD045F21C41C5F60201884227
:1025F0001EBF45F23041C5F60201884277D1E6465A
:10260000DC46D346D4F860A0DAF80010C90305D53B
:10261000DAF8001041F48071CAF80010E46E1CB1C1
:10262000216841F48071216048452CD02821C4F2F2
:10263000020188421EBF4021C4F20201884222D01A
:102640005821C4F2020188421EBF7021C4F2020167
:10265000884218D08821C4F20201884218BF404540
:1026600011D0704518BF60450DD058451CBF3C4681
:10267000B84208D09946B042334604D0A8422A4610
:1026800018BF48450ED1016841F0010101600020EA
:10269000BDE8F88F4FF40060606502F0D4FF0120C0
:1026A000BDE8F88F40F2B84102F01DFDEBD040F2DA
:1026B000A04102F018FDE6E740F2B841C4F2020181
:1026C00088423FF448AF40F2A041C4F20201884280
:1026D0003FF441AF0168052262F343010160216CC0
:1026E00000293FF443AF016841F004013DE745F2A2
:1026F0004441C5F6020188423FF481AF45F258419A
:10270000C5F6020188423FF47AAF45F26C41C5F646
:10271000020188423FF473AF45F29441C5F60201CD
:1027200088423FF46CAF45F28041C5F60201884211
:102730003FF465AFA7E72DE9F84F42F200430A22C4
:102740004FF0000E4FF0000BC5F60203984200F167
:10275000264308BF092203F1FF734FEAB324092C73
:1027600038BF4FEAB3220092002631FA0BF75ED051
:10277000012202FA0BF717EA010C52D00EF00C09F5
:102780000F2275464FEA9B0E02FA09F840F2084202
:10279000C5F6000252F82EA0009B0AEA080203FACE
:1027A00009F4A24220D104234FF0B044C5F600033F
:1027B000DA6F22EA0C02DA67D3F8802022EA0C02F0
:1027C000C3F88020226822EA0C0222601A6822EAFA
:1027D0000C021A6040F20843C5F6000353F82E209D
:1027E00022EA080243F82E20032204680F23AE4693
:1027F000B2401443046005F01C0403FA04F46FF0C3
:10280000030303EA5B0505442B6AA3432B62C368F9
:102810009343C3604368BB434360836823EA020277
:1028200082600EF1040E02360BF1010B9DE7BDE84C
:10283000F88F2DE9FC4F42F200420A2440F2040ACC
:102840004FF0000B4FF001084FF00009C5F60202EF
:10285000C5F6000A904200F1264208BF092402F1A1
:10286000FF724FEAB223092B38BF4FEAB22400941B
:1028700000220D6835FA02F700F0A68008FA02F788
:1028800015EA070E00F09380D1F804C0BCF1120FD6
:1028900000F2938008FA0CF515F0061F00F08D8009
:1028A00003238668CC6803FA09F504FA09F4AE43F9
:1028B0006FEA0508344384604FEA1C144668BE433F
:1028C0009440570034434460C4688D6804EA0804A7
:1028D000BD402C43C4604CF01004122C12D10BF0FC
:1028E0001C040F2303FA04F56FF0030303EA5206F6
:1028F0000644336AAB430D6905FA04F4234333629B
:10290000D1F804C003680CF0030403EA0803BC40D8
:102910004FF00108234303605FEACC0347D544F23C
:10292000F44440F20847C5F60204C5F600072368E0
:1029300043F00203236023680F2403F00203019392
:10294000019D0BF00C0322F003059C40EE5926EA92
:102950000404009E06FA03F32343EB514FF0B04703
:10296000DAF87C304D6843EA0E04EE0358BF23EAE0
:102970000E04CAF87C40AE03DAF8803043EA0E0455
:1029800058BF23EA0E04CAF88040EE023B6843EACF
:102990000E0458BF23EA0E043C60AD02DAF80030A2
:1029A00043EA0E0458BF23EA0E04CAF800400BF1B4
:1029B000040B09F1020901325BE703234F4603FAD6
:1029C00009F56FEA05087FE7BDE8FC8F426902EA76
:1029D0000103914341EA034181617047002A08BF26
:1029E00009048161704741F20000C5F600400068AB
:1029F000000C70470BF04ABE80B5032000F0F8F8D9
:102A000001F0FEFA44F2184143F66413C5F60201E0
:102A1000C0F601030A68096801F00F01C2F303223E
:102A2000595C9A5C01F01F0102F01F02D04040F295
:102A30000802C2F200421060C84040F20C01C2F22B
:102A4000004108600F2000F007F808B1012080BDA8
:102A500000F07EF8002080BD70B540F210060446FC
:102A6000C2F200463078C8B14FF47A71B1FBF0F091
:102A700040F20801C2F200410968B1FBF0F001F038
:102A800073FD01250F2C0AD848B94FF0FF302146BD
:102A90000022002500F08EF8746000E00125284631
:102AA00070BD78B190F83D10022909D1042180F859
:102AB0003D100068C16821F00101C160002070472D
:102AC00080218166012070474EF698510278437844
:102AD000CEF200010B60D2B143684B60037B42EA47
:102AE0000372C37A42EA0362837A42EAC342437BB7
:102AF00042EA8342837B42EA4342C37B42EA034287
:102B0000437A007A42EA032242EA400001E00020D0
:102B10004860886070474EF62450BFF35F8FCEF256
:102B20000000016821F480310160002101677047D5
:102B30004EF6245140F00100CEF20001086708680B
:102B400040F480300860BFF34F8FBFF36F8F704742
:102B500081B044F2F440C5F60200016841F0020180
:102B60000160006800F002000090009801B070471A
:102B700000280FD400F01F010122400902FA01F1E0
:102B80004EF28012CEF2000242F82010BFF34F8FB7
:102B9000BFF36F8F704700280BD400F01F01012294
:102BA000400902FA01F14EF20012CEF2000242F8A0
:102BB0002010704770B54EF60C534FF0FF35CEF233
:102BC00000031B68C3F30223DC1E83F0070338BF36
:102BD000002405FA04F6B243042B28BF042305FAA7
:102BE00003F39943A1401143BDE8704004F095BD43
:102BF0004EF60C514FF6FF03CEF200010A681A4060
:102C000060F30A2242F0806040F0FD700860704777
:102C1000B0B544F60C05C5F602052A6829685207C6
:102C200005D401F00701081A18BF0120B0BD21F03A
:102C30000701084302F05EFB044655F8080C8004C7
:102C400006D4FFF7D7FE02F052FAF6D90120B0BD44
:102C50000020B0BD70477047F8B515460F4603F029
:102C6000FFF8064602F0F3FC04BF0220F8BD012085
:102C700084F8400094F841100220012920D100215D
:102C8000616484F8410020460022334600952021EB
:102C900003F04AFDA0B920463946002203F063FC48
:102CA000786A18B102F0D8FD002009E02046022120
:102CB0000122334600950225012703F035FD18B1A6
:102CC000002184F84010F8BD2068C56084F8417088
:102CD000EAE770B110B504460068016821F001010F
:102CE0000160204600F05AF90020606484F8410039
:102CF00010BD012070477047704710B50168044649
:102D00008A680868530701D5430310D4930701D597
:102D1000830323D4130701D5030334D4D30701D08D
:102D2000C3034DD4D20601D5C00278D410BD94F8A7
:102D30004100122837D10846826852076AD5E26AF4
:102D4000002A63D0606A007881F82000626A2068F7
:102D5000E36A013262625A1EE262EDE70220C86055
:102D6000086820F4E020086094F84100122844D15B
:102D70000868400701D503F02EF902F0A2FBBDE878
:102D8000104000F066BA0820C8600868400205D507
:102D9000086820F41020086002F05EFD2046BDE8BF
:102DA000104000F00ABA94F84100222832D10846B7
:102DB000826852072ED5A26B42B302F04DFFF7E7AF
:102DC0000120C8600A6822F470220A60626C42F036
:102DD000020262640A68520708D502F08EFA0028DF
:102DE000A4D0606C40F004006064012084F84100CD
:102DF0002046BDE81040FFF77EBF94F8410022282E
:102E000014D1086840071BD4084631E0016821F45A
:102E1000802101602046BDE81040FFF76DBF102003
:102E2000C8602046BDE8104000F0C8B994F84100E1
:102E3000022808D102F045FBBDE81040FFF70BBFA8
:102E400003F0C9F81BE094F8410008287FF46EAF46
:102E5000486920F04060486102F0FEFC606C002888
:102E6000C6D12046BDE81040FFF7F4BE02F0F4FEE4
:102E7000806810F47C5F1CBFA06B0028F6D102F0C4
:102E800020FBBDE8104000F097B9F8B502F0E8FF6C
:102E90002CB1054694F8410018B1A06C07E0012060
:102EA000F8BD204600F0A4F841F28830A064216803
:102EB000A2686FF0FF03002603EB02220B6823F4E5
:102EC00070631A430A600090204620212B4600229E
:102ED00003F02AFC00B1F8BDD4E900014FF62F77CA
:102EE000D4E90323C0F2FF0705683D402A4342EAC4
:102EF0000161E2691143226A114301604FF6FE024B
:102F00004168CFF6E072114062691143A26941EA5B
:102F1000034111434160016841F00101016001205A
:102F2000666484F841000020F8BD7CB516460D4665
:102F300002F096FF034602F08AFB04BF02207CBD2C
:102F400002F0D9F825D100206064202100228220DF
:102F500084F84100A06C0090204603F0E5FBC8B95E
:102F600020687168026822F008020A43026008299A
:102F700007D1316801631021C160016841F48011FB
:102F80000160204629464FF0406203F0ECFA002031
:102F900000E00220002184F840107CBDB0B545F26D
:102FA00000010068C5F20021884218BFB0BD44F29C
:102FB000D44040F2004442F23775C5F60200C5F62F
:102FC0000204C0F60005016821F48041016004F5A7
:102FD00040600421A84720464421A84704F500602A
:102FE0004FF46051A8475C20BDE8B040FFF7C0BD7A
:102FF0002DE9F04FB5B0044630A81421FDF7B0FD1F
:1030000001A8B8210430FDF7ABFD45F200012068AE
:10301000C5F2002188427AD14FF000704FF00008CD
:10302000CDF84C80019001A800F07EF908B1FEF7C0
:10303000CFF944F2E04040F2004442F633064FF04C
:10304000090A03274FF002094FF0040BC5F60200EE
:10305000C5F60204C0F6000650F80C1C41F480418D
:1030600040F80C1C50F80C1C01F4804100910099B0
:10307000016841F010010160016801F01001009148
:103080000099016841F002010160016801F002014C
:1030900000910099016841F008010160006800F0AA
:1030A000080000900098CDF8D0A0CDE93287CDF887
:1030B000C490CDF8C0B030AD04F540602946B047AB
:1030C00020462946CDF8D0A0CDE93287CDE930B9E8
:1030D000B0474FF4605030902946CDE9337ACDE9BE
:1030E000319804F50060B0470A20CDE933702946D5
:1030F0000120CDE93190402030902046B0475C203F
:1031000004210022FFF756FD5C20FFF744FD35B097
:10311000BDE8F08F2DE9FC411546884602F0A0FE7F
:1031200027680646B86994F84010012902D10220A8
:10313000BDE8FC81012184F8401094F84110012978
:1031400027D100216164B8F1000F24D0222184F836
:103150004110012239690131A1633969013161638B
:10316000796962F39B617961C4F83080B861A06BC2
:10317000B8B12046062102F033FBC0B997F8200011
:10318000216B0870206BA16B01302063481EA06387
:10319000EDE702200EE0606C40F008006064012062
:1031A00008E003F053F910B92068C5600020012140
:1031B00084F8411003F0D6B87047704770472DE986
:1031C000FC411546884602F04BFE0646276802F091
:1031D0003EFA02D10220BDE8FC8101F08CFF25D12E
:1031E00000206064B8F1000F22D0122084F8410062
:1031F00038690130E06238690130A062C4F8248087
:10320000786920F040607861E06AB8B12046042116
:1032100002F0E6FAC0B9606A007887F82000606AB8
:10322000E16A01306062481EE062EDE702200EE0D4
:10323000606C40F008006064012008E003F006F9CB
:1032400010B92068C5600020012184F8411003F006
:1032500089B8704780B500F0A1FE44F2204102F029
:10326000FAB9B0B502F0C1FACD6BC2F305325AB16A
:10327000C4F3001403F0F7F80AD063B90B689B0697
:103280001DD402F0A1FC08E00021C0E9001114E007
:1032900002F07AFC01E002F086FC01EE103A02F046
:1032A00059FC8B6B02F0ECFC8A6B01F02EFF8A6BF1
:1032B00002F0E1FD896B02F090FB8160B0BD02F08D
:1032C00059FFECE7B0B502F090FA4D6CC2F305522D
:1032D0005AB1C4F3002403F0C6F80AD063B90B68EE
:1032E0009B061DD402F070FC08E00021C0E900112B
:1032F00014E002F049FC01E002F055FC01EE103A46
:1033000002F028FC0B6C02F0BBFC0A6C01F0FDFE25
:103310000A6C02F0B0FD096C02F05FFB8160B0BD89
:1033200002F028FFECE700002DE9F0470446C078E2
:1033300044F21048C5F60208000728D5606E4FEA2F
:103340003051032913D80FF2080202EB810297468D
:1033500000F006B800F00DB800F00EB800F011B89B
:10336000D8F81C1041F40031C8F81C1009E00126FF
:103370000EE002F098FA01E002F07CFF064638B950
:10338000606ED8F8401021F4401102F09FFB002637
:103390006078C00701D135462CE0606D042817D84D
:1033A0000FF20801354601EB80018F4600F008B8A6
:1033B00000F011B800F012B800F013B800F011B826
:1033C000D8F81C00354640F40030C8F81C0008E06E
:1033D000012501270FE002F0CEFF01E002F0DCF84A
:1033E00005462F463DB9606D02F09FFB21F00701B5
:1033F00002F06CFB37466078800728D5A06D4FEA55
:10340000B010042811D80FF2080101EB80018F469B
:1034100000F008B800F00CB800F00DB800F00EB8DD
:1034200000F00CB801F082FF08E0012501260FE052
:1034300002F0A1FF01E002F0AFF805462E463DB9CB
:10344000A06D02F072FB21F4E07102F03FFB3E46FA
:10345000607840072BD5D4F8A4004FEA70500428B8
:1034600011D80FF2080101EB80018F4600F008B877
:1034700000F00DB800F00EB800F00FB800F00DB875
:1034800001F054FF09E001254FF0010910E002F0BE
:1034900072FF01E002F080F80546A94645B9D4F86C
:1034A000A40002F01AFA21F4600102F0FAFAB1461F
:1034B000607800072AD5D4F8A8004FEA30600428C5
:1034C00011D80FF2080101EB80018F4600F008B817
:1034D00000F00CB800F00DB800F00EB800F00CB819
:1034E00001F024FF08E00125012710E002F043FF6E
:1034F00001E002F051F805462F4645B9D4F8A8007E
:1035000002F0EBF921F0E06102F0CBFA4F46E078EF
:10351000800725D5A06C4FEA301003280FD80FF292
:10352000080101EB80018F4600F00FB800F004B8ED
:1035300000F008B800F009B801F0F8FE05E0012538
:1035400001260EE002F0AFF905462E464DB9A06CFB
:10355000D8F83C10002521F030010843C8F83C00A1
:103560003E466078C00628D5E06D4FEA303004282A
:1035700011D80FF2080101EB80018F4600F008B866
:1035800000F00CB800F00DB800F00EB800F00CB868
:1035900001F0CCFE08E0012501270FE002F0EBFE70
:1035A00001E001F0F9FF05462F463DB9E06D02F05C
:1035B000BCFA21F4E04102F089FA374660788006CF
:1035C00028D5206E4FEA3040052814D80FF20801A4
:1035D00001EB80018F4600BF00F013B800F008B87F
:1035E00000F00CB800F00DB800F00BB800F009B80E
:1035F00002F098F804E0012501260CE001F066FFD6
:1036000005462E463DB9206E02F08FFA21F4E021E6
:1036100002F05CFA3E46607840062AD5D4F8AC0049
:103620004FEA3070052814D80FF2080101EB800131
:103630008F4600BF00F013B800F008B800F00CB8D7
:1036400000F00DB800F00BB800F009B802F06AF80D
:1036500004E0012501270DE001F038FF05462F4663
:1036600045B9D4F8AC0002F038F921F0E04102F09D
:1036700018FA37466078000616D5E06E58B1B0F1FA
:10368000005F05D0B0F1805F25D101F04FFE02E070
:1036900002F048F805462E463DB9E06E02F045FAC4
:1036A00021F0405102F012FA3E46E078C00727D0E0
:1036B000606C032812D80FF2080101EB80018F46DD
:1036C00000F013B800F004B800F00CB800F00DB82A
:1036D00001F02CFE09E001250126E6E701254FF067
:1036E00001090EE002F0DFF80546A9464DB9606C0D
:1036F000D8F83C10002521F003010843C8F83C002D
:10370000B146A078400601D44F4616E0D8F8F00341
:1037100040F48070C8F8F003FFF76CF90646D8F85B
:10372000F003C00507D4FFF765F9801B6428F6D9BC
:103730000325032701E02F46DDB12078C00758D0CC
:10374000A06F4FEAF000052843D80FF2080101EB03
:1037500080018F4600F043B800F008B800F03CB894
:1037600000F03DB800F03BB800F039B801F0DAFFE6
:1037700034E0D8F86010D4F8B000414011F4407F34
:1037800011D0D8F86010D8F8602042F48032C8F820
:10379000602021F44071D8F8602022F48032C8F80B
:1037A0006020C8F86010B0F5807F40F00782FFF716
:1037B00021F9064641F2883A03250327D8F860002C
:1037C000800700F1F981FFF715F9801B5045F5D905
:1037D000B3E7012501260DE001F078FE05462E46EF
:1037E00045B9A06FD8F84410002521F0380102F047
:1037F0008EF93E462078800727D5606F052814D8BB
:103800000FF2080101EB80018F4600BF00F013B8F2
:1038100000F008B800F00CB800F00DB800F00BB8DC
:1038200000F009B801F07EFF04E0012501270DE05A
:1038300001F04CFE05462F4645B9606FD8F844109C
:10384000002521F0070102F062F937462078400791
:1038500027D5D4F89000052813D80FF2080101EB02
:1038600080018F4600F013B800F008B800F00CB8E3
:1038700000F00DB800F00BB800F009B801F052FFED
:1038800004E0012501260DE001F020FE05462E464C
:1038900045B9D4F8900002F020F821F0070102F0B9
:1038A00000F93E46207880062AD5D4F88C004FEAED
:1038B0003070052813D80FF2080101EB80018F4604
:1038C00000F013B800F008B800F00CB800F00DB824
:1038D00000F00BB800F009B802F04DFD04E001253E
:1038E00001270EE002F0C6FC05462F464DB9D4F87C
:1038F0008C00D8F84410002521F0E04102F007F9CF
:103900003746207840062AD5D4F898004FEAB020F0
:10391000052814D80FF2080101EB80018F4600BF83
:1039200000F013B800F008B800F00CB800F00DB8C3
:1039300000F00BB800F009B802F01DFD04E001250D
:1039400001260DE002F096FC05462E4645B9D4F856
:10395000980001F0C2FF21F4E05102F0A2F83E46C7
:103960002078000629D5D4F89C004FEA703005284D
:1039700013D80FF2080101EB80018F4600F013B855
:1039800000F008B800F00CB800F00DB800F00BB86B
:1039900000F009B802F0EFFC04E0012501270DE07A
:1039A00002F068FC05462F4645B9D4F89C0001F0AA
:1039B00094FF21F4604102F074F837462068010753
:1039C00013D5D4F88010B1F5805F07D102F052FC16
:1039D000002818BF01272068D4F88010D8F84420A8
:1039E00022F440521143C8F84410C10613D5D4F84C
:1039F0009410B1F5807F07D102F03CFC002818BF7D
:103A000001272068D4F89410D8F8482022F4407296
:103A10001143C8F84810000318D5D4F8A000B0F539
:103A2000003F09D0B0F5803F03D010BB02F0A3FCEB
:103A300001E002F01FFC05462E4645B9D4F8A0006F
:103A400001F04BFF21F4403102F02BF83E46A07804
:103A500040071FD5D4F88400B0F5401F0FD0B0F553
:103A6000001F09D0B0F5801F40F0A38001F05EFC7C
:103A700005E001250126EAE701F028FD05462F466D
:103A80004DB9D4F88400D8F84410002521F4401131
:103A900002F03DF83746A078C00701D13E4618E055
:103AA000E06CB0F5803F03D088B901F03FFC02E044
:103AB00001F0F9FE05462E465DB9E06CD8F83C10E1
:103AC000002521F480310843C8F83C00E6E70125D1
:103AD00001262068810005D502F0CCFB002818BF24
:103AE0000126206881031BD5E16F6FF0010202EB14
:103AF0003122022A0AD34FEA31223AB1012A06D1F1
:103B0000D8F81C2042F40032C8F81C200DB1012660
:103B100006E0D8F8442022F440721143C8F844105B
:103B2000C10207D5216FD8F8402022F0004211438E
:103B3000C8F84010C10008D5D4F8B410D8F8002057
:103B400022F480421143C8F80010810207D5A16E0B
:103B5000D8F8402022F080721143C8F8401041008C
:103B60000CD5D8F8001021F40041C8F80010D4F8A2
:103B7000B810D8F800201143C8F80010B0F1FF3F8A
:103B800007DC216DD8F83C2022F040521143C8F8E0
:103B90003C10000207D5D4F88800D8F8441021F46E
:103BA000400101F0B4FF002E18BF01263046BDE8E9
:103BB000F087012501276EE7D4F8B0004FF6CF71EA
:103BC000D8F8002000F44073C0F2FF0122F47C52C8
:103BD000B3F5407F01EA101108BF0A43C8F800207E
:103BE00000256FF31F30D8F860100843C8F8600054
:103BF0008AE52DE9F843002800F00B8142F2000825
:103C000004468946C5F2002802F028FC88420CD2FE
:103C1000D8F8000020F00F0040EA0900C8F80000C2
:103C200002F01CFC484540F0F48044F20047206854
:103C30004107C5F6020709D52169BA6902F097FB69
:103C400004D9BA6922F070021143B961010709D59C
:103C50006169FA6902F08BFB04D9FA6922F07002FB
:103C60001143F961C1060AD5A169FA6902F4E0625B
:103C7000914204D9FA6922F4E0621143F9618106A4
:103C800009D5E1693A6A02F072FB04D93A6A22F076
:103C900070021143396210F002010AD0E268BB6978
:103CA00003F00F039A4204D9BB6923F00F031A43B0
:103CB000BA61C20738D0D4E90101BA6922F470624E
:103CC0001143B961012807D0032809D002280BD17C
:103CD000396889030CD49CE03968C90508D498E098
:103CE0003968890104D494E03968490740F191802A
:103CF000396921F0070108433861FEF77BFE06466B
:103D000041F288356068396901F03801B1EBC00FC4
:103D100007D0FEF76FFE801BA842F3D90320BDE851
:103D2000F883206800F0020151B1E168BA6902F03D
:103D30000F02914204D2BA6922F00F021143B96115
:103D4000D8F8001001F00F0149450DD9D8F800103E
:103D500021F00F0141EA0901C8F80010D8F800105D
:103D600001F00F01494554D1410709D52169BA69CC
:103D700002F0FDFA04D2BA6922F070021143B9616F
:103D8000010709D56169FA6902F0F1FA04D2FA690A
:103D900022F070021143F961C1060AD5A169FA69DE
:103DA00002F4E062914204D2FA6922F4E062114323
:103DB000F96180060AD5E069396A01F0700188422C
:103DC00004D2396A21F070010843386200F018F912
:103DD000B96943F6641240F20803C0F60102C2F268
:103DE0000043C1F30321515C01F01F01C840B969D0
:103DF000186001F00F01515C01F01F0102F0F6F8AC
:103E000040F21400C2F200400068BDE8F843FEF73B
:103E100023BE0120BDE8F8832DE9F84342F20008F3
:103E2000C5F2002802F01AFB062802D801F071FA48
:103E300031D1FEF7DFFD44F200470446C5F6020724
:103E4000386840F0010038603868400707D4FEF752
:103E5000D1FD001B0228F7D90320BDE8F88378685C
:103E600049F2000140F080407860C0F2D03100207B
:103E7000386140F20C00C2F20040016040F20800DC
:103E8000C2F20040016040F21400C2F2004000683B
:103E9000FEF7E2FD10B10120BDE8F883FEF7AAFDB0
:103EA000044641F288393E69FEF7A4FD054616F046
:103EB000380F03D0281B4845F5D9CDE74EF64551BC
:103EC0003868CFF6F6710840386038688603FEF728
:103ED00091FD0446002E03D5601B6428F5D9BBE78D
:103EE000386820F08070386038688601FEF782FDFF
:103EF0000546002E04D5291B03200229F4D94BE0E6
:103F0000386820F08060386038680601FEF772FD7E
:103F10000446002E04D5611B03200229F4D93BE09E
:103F2000386820F0805038603868800006D5FEF789
:103F300061FD011B03200229F6D92DE040F200218A
:103F40000020B861F8613862C0F20221B962002134
:103F5000C0F2FF11F96240F28021C0F20111396311
:103F60007863B963F86339647864396821F480212F
:103F7000396038664FF0FF30B866D7F8D00040F4AB
:103F80008030C7F8D000D8F80000000703D501F052
:103F9000C0F97FF480AF0020BDE8F88380B500F061
:103FA0002FF844F2184143F66413C5F60201C0F637
:103FB00001030A68096801F00F01C2F30322595C8A
:103FC0009A5C01F01F0102F01F02D04040F208028B
:103FD000C2F20042106002F009F880BD80B5FFF720
:103FE000DDFF01F0F0FCC1F3021102F0BEB880B5B4
:103FF000FFF7D4FF01F0E7FCC1F3022102F0B5B8EE
:1040000010B544F20041C5F602010869C0F3C200D0
:1040100003280ED0022829D068BB0868800649F220
:104020000000C0F2D0305FD50968C1F3C101C840BB
:1040300010BD8A6A886ACB6A4C6BC0F30510F8B170
:1040400003F00103C4F3CC0402F003026343022A29
:1040500000EE103AB8EE400A14D0C2B90A689206CF
:1040600043D442F20042C4F6744214E047F64000E2
:10407000C0F27D1010BD40F60010C0F23D0010BD32
:10408000002010BD4BF62042C4F6BE3203E042F2DF
:104090000042C4F6742201EE102A4FF0645202EE80
:1040A000102A0A6B6FF35F2203EE102AB8EE433A30
:1040B00000EE023A02EE100AB7EE000A086BC0F3F7
:1040C0004620B8EE422A013033EE000A81EE021A91
:1040D00021EE000A01EE100AB8EE411A80EE010A44
:1040E000BCEEC00A10EE100A10BD0A6849F20003C7
:1040F000C0F2D033C2F3C10223FA02F201EE102A59
:10410000B8EE411AC9E7F8B5002800F0E48004468B
:10411000007844F20046C5F60206C00712D03069A6
:1041200000F03801B06A102905D018292AD100F012
:104130000300022826D13068800303D56068002878
:1041400000F0C980207880074AD5306910F0380126
:10415000B06A26D0182901D1800722D03068E168E2
:10416000002900F0018120F01900084300F0CAFF87
:104170000546306840071BD4FEF73CFC401B022874
:10418000F7D94BE16068002800F02581B0F5A02F39
:1041900000F03181B0F5803F00F0318101F068FD21
:1041A00030E13068400703D5E068002800F09380D4
:1041B000FEF719FC41F2030188420AD820697168B0
:1041C00021F47C31402814BF41EA003041F4003032
:1041D00005E02069716821F0FE4141EA00607060ED
:1041E0002078C0063DD5306900F03801B06A082952
:1041F00005D018291BD100F00300012817D1306821
:10420000C00502D5E069802865D1FEF7ECFB41F2DC
:10421000030188421ED8206A716821F0F8412028E5
:1042200014BF41EA806041F08040706019E030685E
:10423000E169002900F0C08040F0800000F062FFDA
:1042400005463068C005E0D4FEF7D4FB401B0228C9
:10425000F7D9E3E0206AF16821F07C5141EA00607F
:10426000F0602078000738D42078800647D4207882
:10427000400756D4676A67B3306900F038001828E1
:1042800040F0CE80B16A306B012F24D0A26A01F0D9
:10429000030393421FD1E26AC1F3051191421AD17F
:1042A0000146226B6FF35F21013A914213D1626B99
:1042B000C0F34621013A91420DD1A26BC0F30641F1
:1042C000013A914207D1E16BC0F30660013988429F
:1042D00001D1002047E10120F8BD706F616999B3F9
:1042E00040F001007067FEF785FB0546706F8007A0
:1042F000BAD4FEF77FFB401B0228F7D98EE0306866
:10430000A169002949D040F4805000F0FBFE054629
:1043100030688004ABD4FEF76DFB401B0228F7D950
:104320007CE0D6F8000440F48070C6F80004FEF784
:1043300061FB0546D6F80004C00524D4FEF75AFBFD
:10434000401B6428F6D969E020F001007067FEF791
:1043500051FB0546706F80077FF586AFFEF74AFB7D
:10436000401B0228F6D959E020F0010000F0CAFEF7
:104370000546306840077FF533AFFEF73BFB01F0A1
:1043800075FFF6D9EFE0A068002864D0052875D045
:10439000012877D001F067FD77E020F4805000F02D
:1043A000B1FE0546306880047FF561AFFEF722FB61
:1043B00001F05CFFF6D9D6E020F0800000F0A2FE0C
:1043C00005463068C0057FF54CAFFEF713FB01F0E2
:1043D0004DFFF6D9C7E001F04BFC00F093FE054617
:1043E000306880037FF5AEAEFEF704FB411B03206F
:1043F0006429F5D9B7E0306840F480203060306837
:1044000040F4803000F07EFE0546306880033FF5C2
:1044100099AEFEF7EFFA401B6428F6D90320F8BDE9
:10442000306820F0807000F06DFE0546022F08D144
:10443000306880013AD5FEF7DDFA01F017FFF7D9B1
:1044400091E0306880017FF544AFFEF7D3FA01F0C8
:104450000DFFF6D987E001F006FD3067FEF7CAFAD6
:10446000054641F28837306F80077FF503AFFEF7CE
:10447000C1FA411B0320B942F5D974E0306F40F016
:1044800004003067306F40F001003067FEF7B2FA89
:10449000054641F28837306F80073FF5EBAEFEF7F7
:1044A000A9FA411B0320B942F5D95CE004F12805C3
:1044B000B06A40F2F33188432ECD0843591E40EADA
:1044C0000210B0626FF35F214FF4FE024FF47E40A2
:1044D00000EB452080B20844A16B02EB01414FF094
:1044E000FE4201F4FE010844E16B02EB016101F0C0
:1044F000FE41084430634FF6F871F06A20F0010085
:10450000F062706B8843A16C40EAC1007063206C5C
:10451000F16A21F00C010843F062F06A616C20F04E
:1045200002000843F062F06A40F48030F062F06A02
:1045300040F40030F062F06A40F48020F062F06AEB
:1045400040F00100F062306840F0807000F0DAFD69
:104550000446306880013FF5BCAEFEF74BFA011B04
:1045600003200229F5D9F8BD411E0020B0EB116FE0
:1045700001D0012070474EF21002F023CEF200026B
:1045800051604EF62351CEF200010B70906007216E
:104590001160704790F88010012901D1022112E0CA
:1045A0002421C0F8841001680A680B6823F0010315
:1045B0000B6022F000520A600021416680F88010F2
:1045C0002022C0F884200846704710B50446D0F871
:1045D0008800202805D1A1B19AB194F88000012863
:1045E00001D1022010BD0120E06684F88000204641
:1045F00002F047FF00B110BDE06E012801D100F0CC
:10460000A5BE012010BD10B50446D0F888002028B2
:1046100005D1A1B19AB194F88000012801D10220FE
:1046200010BD0120E06684F88000204602F065FF9E
:1046300000B110BDE06E012801D100F087BE01205D
:1046400010BD70B540F240060C4605460020012121
:10465000C2F20046C90708BF70BD00EB0010002180
:1046600006EB80020120D368AB42F3D1506B54803B
:1046700009F00DFC01200021ECE77047B0B501F016
:104680001EFB04BF0220B0BD00F05FFD22F060629F
:1046900001F006FC01F0C3B9B0B501F010FB04BF96
:1046A0000220B0BD00F051FD22F0604201F0F8FBA5
:1046B00001F0B5B970477047704710B501680446FE
:1046C0004FF6FE72CEF6FF72086820F4907001F08B
:1046D00080FA03D1086820F010000860886840065E
:1046E00005D40020A4F85E000F220A6217E000F053
:1046F000F2FE0BD046F61351C0F600010165FDF73E
:1047000092F8A0B1E06F016D884710E00020A4F896
:104710005E000F220A628A6942F008028A61202143
:10472000C4F88810A065E0662046FFF7C5FF0020AA
:1047300010BD704710B501F079FC0CD40021616701
:10474000A4F85610616EB1F1005F17D1816941F094
:104750001001816112E001F050F80BD046F6635170
:10476000C0F600010165FDF75EF868B1A06F016D4C
:10477000884709E00020A4F8560060672020C4F8AC
:1047800084002046FFF7D5FF002010BD704770B5AC
:10479000016840F60F050446CA6908688B682A421A
:1047A0007AD040F22015C0F2004500EA0506012546
:1047B000C1F200051D40761978D0D60709D0C6058C
:1047C00007D501260E62D4F88C6046F00106C4F8C5
:1047D0008C60960709D5DE0707D002260E62D4F852
:1047E0008C6046F00406C4F88C60560709D5DE07D5
:1047F00007D004260E62D4F88C6046F00206C4F896
:104800008C6016070BD500F02006354307D008252D
:104810000D62D4F88C5045F00805C4F88C5015058D
:104820000AD5450108D54FF400650D62D4F88C50C7
:1048300045F02005C4F88C50D4F88C50002D73D06E
:1048400092060AD500F0200003F08052801804D0B0
:10485000226F12B1204690472168D4F88C008968F5
:1048600000F0280001F04001401857D0204602F027
:104870008AFA2068816849064BD500F0FBFF48D0D2
:1048800046F65941C0F600010165FCF7CCFF00284F
:104890004AD0E06F016D1FE0950607D500F02005B6
:1048A00003F08056AD1901D0216F13E0E56E012DA4
:1048B00003D1D50601D5C50637D4D50201D55D0291
:1048C0001FD415060BD500F0800503F400035B1917
:1048D00005D0616F41B32046BDE8704008475306DC
:1048E00001D5430647D4110201D5410051D4D1016D
:1048F0001AD5B0F1FF3F17DC2046BDE87040FFF746
:10490000BCBE4FF4801008622046BDE87040FFF73F
:10491000D2BE2046BDE87040FFF738BF2046FFF703
:1049200035FF0020C4F88C0070BD10200862886834
:10493000400633D4B4F85E00B4F85C20B4F85E30BE
:10494000002BF1D0101A0204EED00A684FF6FE7365
:1049500022F490720A60CEF6FF738A681A408A6069
:104960002022C4F888200022E26622670A6822F02A
:1049700010020A6033E0086820F040000860002060
:1049800060672020C4F884002046BDE8704000F035
:1049900033BA2046BDE87040FFF78CBEE06F026876
:1049A00053689DB2002DBFD0B4F85C209542BBD2B5
:1049B000A4F85E30C369B3F5807F0DD001F05FFCD1
:1049C000C4F888200022E2660A6822F010020A6019
:1049D000FCF73EFDB4F85C20B4F85E00101A81B21A
:1049E0002046BDE87040FFF72CBE10B548B1044624
:1049F000D0F8840008B901F04DFA00F09BFB0128C3
:104A000001D1012010BDA06A08B101F0C1F901F087
:104A1000AFF921F02A01816001F0B1FCBDE810403E
:104A200002F0EEB82DE9F041B6B0044631A81421E9
:104A3000FCF796F802A8B8210430FCF791F841F28F
:104A400000012068C4F20101884270D100260125CE
:104A50002096029502A8FEF767FC08B1FCF7B8FCA7
:104A600044F2E040C5F60200016941F01001016125
:104A7000016901F0100101910199016841F0010102
:104A80000160006800F001000190072035900320CC
:104A9000CDE93350022032904FF4C060319001983C
:104AA00031A90020C5F60200FDF7C3FE44F204055B
:104AB0001027292014214FF48068C2F20045C4F267
:104AC0000207C5E9007005F11400C5E90266C5F8E2
:104AD0001080FCF745F82846FDF7D0FA08B1FCF73E
:104AE00077FCAC63E56744F27C05002040212A2274
:104AF00007F13003C2F20045C5E9021005F11400C8
:104B00001421C5E90032C5F81080FCF729F82846C1
:104B1000FDF7B4FA08B1FCF75BFC25200C2100225C
:104B2000AC63A567FEF746F82520FEF734F836B0EB
:104B3000BDE8F0812DE9F8430546D0F8880020282B
:104B400007D10E4641B1174632B195F880000128D1
:104B500005D10220BDE8F8830120BDE8F8832221B9
:104B60000020C5F88C00C5F888101C46012185F886
:104B70008010E866FDF73EFFA5F85E708046A5F858
:104B80005C70A86870B1B0F1805F0FD0B0F5805F45
:104B900010D1286940B940F2FF17B1460026A5F8A8
:104BA00060700EE0286938B9FF2706E0286918B15F
:104BB0003F2702E0002700E07F27A5F860704FF054
:104BC0000009002085F88000B5F85E00C0B12846D5
:104BD000202100224346009402F059FDB0B9286814
:104BE000406A1EB1384006F8010B03E0384029F84E
:104BF000020B0026B5F85E000138A5F85E00E3E779
:104C00002020C5F888000020BDE8F8830320BDE817
:104C1000F883704770472DE9F8430446D0F88400C4
:104C2000202807D10E4641B1174632B194F88000D2
:104C3000012805D10220BDE8F8830120BDE8F883F2
:104C400001204FF00009C4F88C9084F880001D46C4
:104C50002120C4F88400FDF7CDFEA4F856708046EC
:104C6000A4F85470A068B0F5805F01D1206908B144
:104C7000002701E03746002684F88090B4F85600FB
:104C8000B8B12046802100F093FFB8B926B1216861
:104C900016F8010B886206E037F8021B2068002630
:104CA0006FF35F218162B4F856000138A4F8560012
:104CB000E4E72046402100F07BFF10B10320BDE86F
:104CC000F8832020C4F884000020BDE8F88370B584
:104CD0000546D0F88400202806D189B313467AB35C
:104CE00095F88000012801D102242AE00120A5F8CE
:104CF00056300024C5F88C4085F88000A5F8543063
:104D000029652120C5F88400A86FE0B146F6694204
:104D100046F63556C0F60002C0E91324C0F6000678
:104D200046F65D52C0F60002C0E90F622A682832DA
:104D3000FDF7AFFB38B11020C5F88C0001F032F858
:104D40000124204670BD28684021016285F880401A
:104D5000816841F080018160F3E7D0F88430202B36
:104D600005D131B12AB190F88030012B04D1022154
:104D700000E0012108467047A0F856200023C0F843
:104D80008C300165A0F854202121C0F88410426EB7
:104D90008168B2F1005F12D1B1F5805F01D1016984
:104DA00001B347F25B62C0F60002002180F8801078
:104DB00042670068826842F400028260DAE7B1F577
:104DC000805F01D1016991B147F23162C0F6000202
:104DD000002180F8801042670068026842F080027B
:104DE0000260C7E747F2F952C0F60002DDE747F27A
:104DF000CB52C0F60002EBE7B0B540F240050446E6
:104E000000200121C2F20045C90708BFB0BD00EB78
:104E10000010002105EB80020120D368A342F3D1EA
:104E2000906B09F034F801200021EDE77047FEE7B0
:104E3000E0B544F2D8400022C5F60200016841F016
:104E40000101016000680D2100F00100019001984E
:104E50000B20FDF7AFFE0B20FDF79DFE0D200D2171
:104E60000022FDF7A7FE0D20BDE88C40FDF793BEA4
:104E7000F0B587B044F2E0400025069500240122F9
:104E800002260127C5F60200C5F60204016841F0BA
:104E9000010101600068022100F001000190019809
:104EA0002046FDF79BFDCDE90475CDE9026702A917
:104EB0002046FDF7BEFC07B0F0BDF8B544F28030E7
:104EC00045F2000700214FF48062172310242025AB
:104ED0000126C2F20040C5F200270162C0E9007657
:104EE000C0E90254C0E90432C0E90611FDF7CDFF64
:104EF00018B1BDE8F840FCF76BBAF8BD10B544F244
:104F0000CC340C20002141F200034FF4E132C2F214
:104F10000044C4F20103C4E90410C4E9021104F11D
:104F200018001421C4E90032FBF71AFE2046FFF7EF
:104F30005CFD08B1FCF74CFA44F2CC300021C2F21F
:104F40000040FFF7A9FB08B1FCF742FA44F2CC306D
:104F50000021C2F20040FFF791FB08B1FCF738FADC
:104F600044F2CC30C2F20040FFF714FB18B1BDE8A8
:104F70001040FCF72DBA10BDFEE7FEE74EF2100020
:104F8000CEF20000006870474CF28870C2F2004018
:104F90000178012908D14EF604514FF08062CEF21B
:104FA00000010A60002101704EF21000CEF20000F4
:104FB000016841F00101016070474FF0FF30704718
:104FC00058B140F20801C2F200410968B1FBF0F0AB
:104FD000411E0020B0EB116F02D04FF0FF30704740
:104FE0004EF62352FF23CEF2000213704EF210024F
:104FF0000623CEF20002136051604CF28871C2F2B7
:1050000000410870906070478DF817009DF81700F8
:10501000002870470D4640F2D00140F22837144670
:10502000C2F20041C2F2004789690E187868002870
:10503000704744F66201024644F26040C2F200400A
:10504000C0F601017047CDE90040C0F60101C0F68D
:105050000102022006F0B0BFDAF80010CDF810B05F
:105060000A9170474BF6AF604BF6AF61CDF6AF607B
:10507000CDF6AD61016070474BF6AF604BF6AF61A6
:10508000CDF6AF60CDF6AD610160704750F8081CF9
:1050900045F2A840C0F601000AF09BBA9946904636
:1050A0000E4606F001BA44F2B05045F2707145F276
:1050B000BD728123C0F601000090C0F60101C0F668
:1050C0000102039144F6CA70C0F6010001907047D6
:1050D000D8E84F1FC8E8410F002970470446C0694F
:1050E0000D4600287047C4F2020188427047001B39
:1050F000B0F57A7F7047012084F8400094F84100B1
:10510000012870473060FDF775BCC2F34622B8EE47
:10511000433A81EE031A21EE021A02EE102AB8EE8B
:10512000422A32EE002A81EE022ABCEEC22A80ED2B
:10513000002A70472420C4F884002068016821F008
:1051400001010160204601F047BF2420C4F884001B
:1051500020680568026822F001020260012284F8DA
:10516000802082687047CDE90218C0F60102002055
:10517000414606F021BFC0F60102CDE90021022020
:1051800045F664617047CDE90216C0F601020020C1
:10519000314606F011BFCDE90214C0F6010200202D
:1051A000214606F009BF46F29A4844F6CA7B44F20B
:1051B000B0594BF6AF6A064600284BF6AF601C4666
:1051C00015460F46C0F60108C0F6010BC0F60109EE
:1051D000CDF6AF60CDF6AD6A70478DF837009DF81B
:1051E00037000028704720464FF47A7102F0B8BDAE
:1051F000CDE90060C0F60101C0F60102012006F011
:10520000DBBE2168D4E90223204608F040BA2046DC
:105210006FF003016FF00305FCF7FBB820466FF059
:1052200003016FF00305FCF7FEB820466FF005019F
:10523000FCF701B942F6844542F6DC6003994FF46D
:105240008073C2F20045C2F200402A460CF003BD52
:1052500044F2ED6144F2E8527047022006F0ACBE21
:1052600044F63E40C0F601007047C0F60101CDE9AA
:105270000221C0F60103C0F60106CDE9006300205B
:1052800070470490C0F60102C0F60101CDE9022189
:10529000C0F60103C0F60107CDE900730020704796
:1052A00008200AF0D3B920463146424628474BF63B
:1052B000AF614BF6AF60CDF6AF61CDF6AD60086083
:1052C000704743F6B87100EB4000C0F6010101EBF6
:1052D00080014868098970474BF6AF604BF6AF61B3
:1052E000CDF6AF60CDF6AD6101607047C5F6020145
:1052F000884270472860FDF77DBBE06B46F2F7629D
:10530000C0F6000282650A6822F004020A60FDF716
:10531000C8BBD8F80000072161F30300C8F80000FB
:10532000D8F8000000F00F0007287047D8F81C00DC
:1053300040F40030C8F81C007047016821F01001EB
:1053400001602046B4F85C10FFF77BB9206810219B
:105350000162016841F010010160002010BD4BF6B0
:10536000AF60CDF6AD60CAF800007047C0F601012D
:1053700006F022BECDE90215C0F601020020294642
:1053800006F01ABE46F29A410120C0F6010106F06D
:1053900013BE608B4EF61871884270472046062176
:1053A00002F0D2BCC0F60101C0F60102012006F0F5
:1053B00003BE4FF0FF304FF0FF34FCF712B8204629
:1053C0006FF00501FCF725B8A1892046FCF729B844
:1053D00020466FF003016FF0030570470A2190FB30
:1053E000F1F101EB8101A0EB41007047C0F6010132
:1053F000CDE90221C0F601037047E16D012201F001
:105400001F0102FA01F14160704704460068D0F8BC
:105410001C9001688268B4F86050D4F88830222B60
:10542000704745F66461C0F60103CDE9003270476C
:1054300006F11C08404604F026B946F60D6044F219
:10544000B05647F2410147F26702CDF83880704705
:105450000C99B87F089100244FF4805109910421E0
:105460000A9100917047CDE90002CDE90211CDE922
:10547000041120460221012233467047012202F026
:10548000D8BD01250DF13E060027704700200421FC
:10549000CDE908000A900091704706208DF833008E
:1054A000704706208DF82E0070470198C0084A28E2
:1054B0007047E16D3F2201F01F0102FA01F18160A6
:1054C0007047012084F841002046704704F1240011
:1054D000012101F0B4B9886820F040008860E06FD5
:1054E0000028704745F6646144F6CA7370474BF66E
:1054F000AF60CDF6AF60C0F800A07047CDE90041C5
:10550000022039465847686A8168696200297047F5
:105510000C98089000244FF48050099001200A90C4
:10552000009070474FF0040801260DF13607002562
:105530004FF496700C907047A07F04210322CDE9B0
:1055400008670A910025CDE900127047200B8DF8FD
:10555000470020098DF8480020018DF84900704768
:10556000CDE90450CDE90255CDE9065520460B2181
:10557000042270472B4602F05CBD280E8DF83300E4
:105580007047E1680A200847019801300190704790
:10559000C5F602008742704704F12400002101F0A3
:1055A0004EB9B4F8687002F0010601F480784FF04B
:1055B000200A4FF0000B7047CDE90010C0F6010241
:1055C00045F6646170474BF6AF60CDF6AD60CAF842
:1055D0000000704743F6640645F216640025C0F6E5
:1055E0000106C0F601047047A07F00250421CDE923
:1055F00008670A91CDE900117047CDE90211CDE9A4
:10560000041120460221042233467047384602F036
:1056100010BD042000210322CDE908110A90CDE934
:105620000002704746F2F9706169C0F60100084750
:1056300046F289506169C0F6010008470298039953
:10564000084403907047002084F83400704794F8B1
:1056500040000128704743F66412C5F60201C0F607
:1056600001020968C1F30211515C01F01F01C84039
:1056700080BD21F4D0710160816821F00101816059
:105680002020C4F88400704701200221CDE90010D9
:105690007047CDE9009BC0F60101CDE902187047C3
:1056A0002046052104220023CDE90876CDF8288084
:1056B000CDE90055CDE90255CDE90455CDE90655B2
:1056C00002F0B7BC4FF4805304F010BA002104205C
:1056D000CDE908110A90CDE9000070470120CDE91D
:1056E00008670A9000250821042270470120002540
:1056F00008210322CDE908670A90704710B0BDE881
:10570000F081E17F207F0029704742F6DC60039939
:10571000C2F200407047012084F8340094F835004C
:1057200001287047201D012101F02DB8CDE9009B13
:10573000C0F60101CDE902187047CDE90055CDE969
:105740000255CDE90455CDE9065502F072BC46F686
:105750008A5144F2B05647F2670200200290704727
:1057600040F20811C2F200417047CDE908110A90D9
:105770007047300A84F8240084F825603946704761
:10578000300A84F8230084F824603946704700907A
:10579000CDE90888CDF828800320704720098DF8CE
:1057A000470020018DF84800704701200021CDE915
:1057B00008110A9004227047CDE90200CDE90400E7
:1057C000CDE90600704744F2EE30C0F601000CF05F
:1057D00034BD04F16C02002307CA03604A607047BD
:1057E00001223346009500F09FBF44F20041C5F608
:1057F00002018B6A8A6ACC6A7047816821F0800155
:105800008160A06F0028704746F6B3006169C0F65A
:105810000100084747F241010120C0F6010106F0EE
:10582000CBBB42F6A5610068CEF25A218842704790
:105830008DF834008DF835007047C5208DF82E00A6
:10584000704794F820001F46164688460028704787
:1058500001900198FF287047012084F841007047AB
:1058600044F200470546C5F60207B86A00F0030097
:1058700003287047816821F040018160E06F0028B3
:1058800070478DF82F009DF82F000028704746F6CE
:105890000550C0F6010009F09CBE42F6DC60C2F281
:1058A00000400CF057B9201D022100F06CBF43F6F8
:1058B0007411C0F6010131F81210B0FBF1F061680B
:1058C0007047022006F078BB03980499884270471D
:1058D000044690F8340001287047D8F84810002595
:1058E000704746F2BA606169C0F60100704745F240
:1058F0001860C0F6010009F06CBE0199605401986F
:10590000013070472167016841F020010160BDE866
:10591000F88F0020CDE908000A90CDE90000CDE91C
:105920000200CDE90400CDE906000621042200238F
:10593000204602F07EBB46F69830C0F6010009F022
:1059400048BE42F62C2442F6DC6003994FF4807383
:10595000C2F20044C2F2004022460CF041BD42F6C1
:10596000DC6031462A462346C2F20040704744F6C6
:10597000554144F6834270470020414606F01CBB67
:1059800045F2952245F2702144F6CA7345F2552737
:10599000704745F21B600A21C0F6010009F019BEEC
:1059A00078B2BDE8F883029081200490002006F0D0
:1059B00003BBBFF32F8FBFF35F8F08F032BFC4F27A
:1059C00002008742704744F21C4143F66412C5F658
:1059D0000201C0F6010209687047C1F3066102EED8
:1059E000101AB8EE422A32EE000A81EE000ABCEE2E
:1059F000C00A10EE101A704720684FF6FE72CEF6FD
:105A0000FF72016821F4807101608168114081603A
:105A1000C4F888A0C4F870B0E16E0129704720680E
:105A200020210560002084F88000C4F88410B0BDF7
:105A3000C0F60102CDE90021042045F664617047FB
:105A4000C0F60102CDE90021012046F29A417047DB
:105A50008DF83F009DF83F00002870472046432105
:105A600002F072B9CDE90080C0F60101C0F6010272
:105A7000012006F0A1BA6FF00500FBF7B2BC40F2BE
:105A80000811C2F20041D1F8940000287047A189A2
:105A90002046FBF7CCBC20466FF002016FF00205F8
:105AA00070470843C8F848007047906820F4000029
:105AB0009060106840F040001060704742F2206132
:105AC000C2F2260149F80010484470470843C8F85C
:105AD0004000704704210162D4F88C0040F00200BD
